:020000040800F2
:100000008819002015020008F11B0008AB1A00082F
:10001000ED1B0008B70700088D1E00080000000057
:100020000000000000000000000000001D1C00088F
:10003000BB07000800000000F31B00081F1C00089D
:100040002F0200082F0200082F0200082F020008CC
:100050002F0200082F0200082F0200082F020008BC
:100060002F0200082F0200082F0200082F020008AC
:100070002F0200082F0200082F0200082F0200089C
:100080002F0200082F0200082F0200082F0200088C
:100090002F0200082F0200082F0200082F0200087C
:1000A0002F0200082F0200082F0200082F0200086C
:1000B0002F0200082F0200082F0200082F0200085C
:1000C0002F0200082F0200082F0200082F0200084C
:1000D0002F0200087D1E00082F0200082F020008D2
:1000E0002F0200082F0200082F0200082F0200082C
:1000F0002F0200082F0200082F0200082F0200081C
:100100002F0200082F0200082F0200082F0200080B
:100110002F0200082F0200082F0200082F020008FB
:100120002F0200082F0200082F0200082F020008EB
:1001300000F002F800F045F80AA090E8000C8244B4
:100140008344AAF10107DA4501D100F03AF8AFF291
:10015000090EBAE80F0013F0010F18BFFB1A43F0A5
:100160000103184734C1000054C10000103A24BFF5
:1001700078C878C1FAD8520724BF30C830C144BF0C
:1001800004680C607047000000230024002500264E
:10019000103A28BF78C1FBD8520728BF30C148BFEA
:1001A0000B607047782900F0ED80002070471FB584
:1001B0009DE8030000F09AF900F025F91FBD10B585
:1001C00010BD00F084FA1146FFF7F1FF07F0A4FD1F
:1001D00000F0A2FA03B4FFF7F2FF03BC02F0A8F9A3
:1001E0000B49D1F800C04A685CF8043B1068184419
:1001F00042F8040B8C4528BFA1F1DC0C8A4228BFD1
:10020000A1F1DC02C1F800C04A6020F00040704754
:100210001C1300200948804709480047FEE7FEE715
:10022000FEE7FEE7FEE7FEE7FEE7FEE7FEE7FEE7A6
:1002300004480549054A064B704700002B1C00087E
:10024000310100088813002088190020881500203B
:1002500088150020704770B5064600F02BF9056838
:1002600006F10B0020F00704B4429CBF002070BDD3
:100270002B466A68BAB11068A04210D304F1080195
:1002800088423CBF5068586007D3516810194160DC
:100290001168091B016058601460101D70BD134681
:1002A0005268002AE7D12146284600F00BF90028C1
:1002B000DED170BD70B50446051F00F0FBF8006884
:1002C000002C14BF446870BD002C18BFAC423CBF6A
:1002D00020466468F8D301680A18AA4218BF45602E
:1002E00003D12A6805461144016028684119A142DA
:1002F0001CBF6C6070BD616869602168084428603B
:1003000070BD00000FB4044910B503AA029800F0B4
:1003100087F910BC5DF814FB080000202DE9F041BE
:100320000E460446002020622046E168884730B32C
:10033000252805D0D4E901219047206A401CF2E726
:10034000E168204600278847050018D0A5F1410044
:10035000192802D820354FF4006732462946204636
:100360002760FFF71FFF40B1012804D0F61D26F0DB
:1003700007060836D8E7361DD6E72846DAE7206AAA
:10038000BDE8F08170B504460D4621461068AFF314
:1003900000802188090502D50F4A7A4402E00E4AFE
:1003A0007A440E32002104F1240305E000F00F0628
:1003B0000009965D5E54491C0028F7D1207800237F
:1003C000000704D5702D02D009B102231132204656
:1003D000BDE8704000F0CBB8B0BD00000B4910B5CF
:1003E000A1F17C020A4CC2E93712372106E000EB8A
:1003F000104342F82130074B00FB03400B1EA1F1D4
:100400000101F4DC10BD0120E8E70000BC1200206F
:10041000E119D666CD0D01004FF000020429C0F0AD
:10042000128010F0030C00F01B80CCF1040CBCF126
:10043000020F18BF00F8012BA8BF20F8022BA1EB78
:100440000C0100F00DB85FEAC17C24BF00F8012B5D
:1004500000F8012B48BF00F8012B70474FF0000255
:1004600000B5134694469646203922BFA0E80C50AA
:10047000A0E80C50B1F12001BFF4F7AF090728BF85
:10048000A0E80C5048BF0CC05DF804EB890028BF01
:1004900040F8042B08BF704748BF20F8022B11F02A
:1004A000804F18BF00F8012B7047704770477047A6
:1004B00070470000004870472C13002070477047B9
:1004C0007047704738B504460A4600206946AFF3C6
:1004D0000080002808BF38BD02460099204600F081
:1004E000B9F8012038BD012000F0EAB8F8B5AFF343
:1004F0000080054600200C46102000BF0646A819C3
:10050000A0420DD9324669460020AFF300800700B3
:1005100008BF00F0D5F80098A04218BF0546C419DE
:10052000FFF7C8FF05600746F01D20F007004619D9
:10053000284600F00AF8B44208BFF8BDA21B3146B5
:100540003868BDE8F84000F085B800210160C0E9D6
:10055000011070471020704710B500F077F8006860
:1005600010BD10B5044600F071F8046010BD2DE90F
:10057000F0470D4699469246044600F1240801686A
:10058000880604D5E06921F01001216000E0012017
:10059000A84201DD471B00E00027A1697A1902EBA0
:1005A0000900081AA0612078C00602D42046AFF3E3
:1005B0000080002608E0D4E901211AF806009047DF
:1005C000206A401C761C20624E45F4DB2078C00671
:1005D0000AD52046AFF3008006E0D4E9012130209F
:1005E0009047206A401C2062381EA7F10107F4DC06
:1005F00007E0D4E9012118F805009047206A401C63
:100600002062281EA5F10105F3DC2046AFF300802F
:100610002078000602D50220BDE8F0870120FBE724
:10062000074B70B50D467B4400F033F8044628466E
:1006300000F042F810B14FF0FF3070BD204670BDA1
:100640005B3A0000004870472413002000487047C0
:1006500024130020034640688C46002818BF8842B7
:100660003CBF03464068F8D318681844884207D056
:100670000CF1030020F00700001D411A521A014638
:10068000081D0A60FFF716BE01694A1C026108785E
:10069000704700B58FB0CDE90131002105910549C2
:1006A0007944CDE9031011466846FFF737FE0FB0D5
:1006B00000BD0000E5FFFFFF007B00F080007047F9
:1006C00010B500F037F8BDE8104000F02EB87546C0
:1006D000FFF7B8FFAE4605006946534620F0070015
:1006E000854618B020B5FFF7A3FDBDE820404FF0C8
:1006F00000064FF000074FF000084FF0000B21F00C
:100700000701AC46ACE8C009ACE8C009ACE8C009D8
:10071000ACE8C0098D46704710B50446AFF30080C1
:100720002046BDE81040FFF755BD002801D001F07C
:10073000FFBE704710B5012805D0002103A000F0CE
:1007400021F8012010BD09A1F8E7000053494752E4
:10075000544D454D3A204F7574206F662068656191
:1007600070206D656D6F7279000000003A20486559
:100770006170206D656D6F727920636F7272757034
:100780007465640070B505460C460A2000E06D1CD7
:1007900001F0D0FE35B128780028F8D102E0641CC1
:1007A00001F0C8FE14B120780028F8D1BDE87040EF
:1007B0000A2001F0BFBE00BFFEE7704770B50446D7
:1007C000B3F5804F13D1D1E9000540EA05108D68DB
:1007D00040EA05208D6928438D8940EA054054F898
:1007E0002250064E3540284344F8220003E06FF0C3
:1007F000704044F82200002070BD00000000F0CFDF
:1008000070B50246086852F8200020F001000E681A
:1008100042F826008868082801D1402300E0002320
:10082000486818438E683043CE6830430E693043C1
:100830004E693043CE6930430E6A30434E6A3043CE
:100840008E6A3043CE6A30430E6B40EA06048869F4
:100850000443486B0443074D45F4806545F4E025A7
:10086000086852F82000A84320430E6842F826008A
:10087000002070BD7FFB080010B50346D1E90004DD
:1008800040EA04108C6840EA04208C8940EA044461
:10089000088A401E44EA0054087D801E44EA006035
:1008A0008C692043541C53F8244004F040442043F6
:1008B000541C43F82400002010BD000070B504460D
:1008C000002594F82100022803D00420A06301250C
:1008D000C1E02068006820F00E00216808602068F0
:1008E000006820F00100216808605C4920688842A7
:1008F00052D95A4978392068884201D1012047E00D
:10090000564964392068884201D1102040E053499B
:1009100050392068884201D1801539E04F493C396F
:100920002068884201D1801432E04C49283920687F
:10093000884202D14FF480302AE0484914392068B7
:10094000884202D14FF4801022E044492068884256
:1009500001D140041CE042492068884201D10120B5
:1009600016E03F4914312068884201D110200FE081
:100970003B4928312068884201D1801508E0384978
:100980003C312068884201D1801401E04FF480306E
:100990003349091F086051E030497839206888429E
:1009A00001D1012047E02D4964392068884201D1F6
:1009B000102040E0294950392068884201D1801533
:1009C00039E026493C392068884201D1801432E060
:1009D000224928392068884202D14FF480302AE029
:1009E0001E4914392068884202D14FF4801022E059
:1009F0001A492068884201D140041CE01849206847
:100A0000884201D1012016E015491431206888423E
:100A100001D110200FE0124928312068884201D10D
:100A2000801508E00E493C312068884201D18014CD
:100A300001E04FF48030094980394860012084F892
:100A4000210000BF002084F8200000BF606B10B1BF
:100A50002046616B8847284670BD00008000024038
:100A6000080402402DE9F847024600239C467BE13A
:100A70004FF0010808FA03F4D1F8008008EA0400F6
:100A8000A0427DD1DFF8F4A2D1F80480A8EB0A09D6
:100A9000D0453AD014DCB8F1030F50D009DCB8F1DE
:100AA000000F31D0B8F1010F1CD0B8F1020F49D1BD
:100AB00020E0B8F1110F18D0B8F1120F42D11EE0AA
:100AC000B9F5881F25D006DCB9F5803F20D0B9F5EF
:100AD000801F37D11AE0B9F5001F18D0B9F5041FEF
:100AE00030D117E0D1F80CC02DE0D1F80C8008F11E
:100AF000040C28E0D1F80C8008F1080C23E0D1F8B0
:100B00000C8008F10C0C1EE000BF00BF00BF00BF4E
:100B100000BF00BFD1F80880B8F1000F02D14FF03C
:100B2000040C0BE0D1F80880B8F1010F03D14FF0AD
:100B3000080C146102E04FF0080C546103E04FF020
:100B4000000C00E000BF00BFFF2801D8904601E084
:100B500002F104084646FF2802D84FEA830803E062
:100B6000A3F108084FEA88084746D6F800804FF0FE
:100B70000F0909FA07F928EA09080CFA07F900E051
:100B80007AE048EA0908C6F80080D1F8048008F045
:100B90008058B8F1805F6FD100BFDFF8E481D8F8EA
:100BA000188048F00108DFF8D891C9F81880C846C5
:100BB000D8F8188008F00108CDF8008000BF00BF09
:100BC0004FEAB9384FEA930958F829504FEA837829
:100BD0004FEA18794FF00F0808FA09F825EA0805D6
:100BE000DFF8A081424502D14FF0000824E0DFF891
:100BF0009881424502D14FF001081DE0DFF88C8159
:100C0000424502D14FF0020816E0DFF884814245E8
:100C100002D14FF003080FE0DFF87881424502D19E
:100C20004FF0040808E0DFF87081424502D14FF030
:100C3000050801E04FF006084FEA83794FEA197979
:100C400008FA09F848EA0505DFF850814FEA9309E8
:100C500048F82950D1F8048008F48038B8F5803F6E
:100C60000BD1DFF83C81D8F8008048EA0008DFF8B3
:100C70003091C9F800800AE075E0DFF82481D8F8E7
:100C8000008028EA0008DFF81891C9F80080D1F840
:100C9000048008F40038B8F5003F0ED1DFF8008179
:100CA00008F10408D8F8008048EA0008DFF8F0905E
:100CB00009F10409C9F800800DE0DFF8E48008F1CB
:100CC0000408D8F8008028EA0008DFF8D49009F179
:100CD0000409C9F80080D1F8048008F48018B8F538
:100CE000801F0ED1DFF8B88008F10808D8F800801E
:100CF00048EA0008DFF8A89009F10809C9F800805F
:100D00000DE0DFF89C8008F10808D8F8008028EA98
:100D10000008DFF88C9009F10809C9F80080D1F8C3
:100D2000048008F40018B8F5001F0ED1DFF87080B9
:100D300008F10C08D8F8008048EA0008DFF8609055
:100D400009F10C09C9F800800DE0DFF8548008F1C2
:100D50000C08D8F8008028EA0008DFF8449009F170
:100D60000C09C9F800805B1CD1F8008028FA03F850
:100D7000B8F1000F7FF47CAEBDE8F88700001110D9
:100D80000010024000080140000C0140001001402A
:100D90000014014000180140001C014008000140FF
:100DA00000040140024693680B400BB1012000E0B3
:100DB000002070470AB1016101E00B040361704734
:100DC00001480068704700001000002003480068D8
:100DD0000349097808440149086070471000002061
:100DE0001800002010B50848006840F010000649BF
:100DF0000860052000F080F80F2000F007F800F0F0
:100E00002BF8002010BD00000020024070B5044601
:100E10000E4800784FF47A71B1FBF0F00C49096884
:100E2000B1FBF0F5284600F05FFC08B1012070BD71
:100E3000102C07D200222146501E00F01EF8054853
:100E4000046001E00120F2E70020F0E71800002034
:100E500000000020140000207047014608460028CA
:100E600009DB00F01F0301229A4043099B0003F1B4
:100E7000E023C3F8002100BF70472DE9F05F8046F2
:100E80000D461646002701F017F8074639462A4650
:100E9000334601F00700C0F1070ABAF1040F02D986
:100EA0004FF0040A01E0C0F1070AD14600F1040A3C
:100EB000BAF1070F02D24FF0000A01E0A0F1030AD5
:100EC000D4464FF0010A0AFA09FAAAF1010A0AEA1D
:100ED000020A0AFA0CFA4FF0010B0BFA0CFBABF109
:100EE000010B0BEA030B4AEA0B042146404600F0D3
:100EF000EBFFBDE8F09F000000BF00F00702064BCB
:100F000019684FF6FF031940044B0B4343EA0221D3
:100F1000014B196000BF70470CED00E00000FA05BE
:100F200070B504460D460CB9012070BD5A480068E2
:100F300000F00700A8420ED25748006820F00700D2
:100F40002843554908600846006800F00700A84299
:100F500001D00120E9E7207800F0020002281DD12D
:100F6000207800F00400042805D14C48406840F483
:100F7000E0604A494860207800F00800082805D160
:100F80004648406840F460504449486043484068DF
:100F900020F0F000A168084340494860207800F044
:100FA000010078B36068012806D13C48006800F46D
:100FB000003090B90120B8E76068022806D13748B0
:100FC000006800F0007040B90120AEE733480068C7
:100FD00000F0020008B90120A7E73048406820F07F
:100FE0000300616808432D494860FFF7E9FE0646A3
:100FF00009E0FFF7E5FE801B41F28831884202D903
:10100000032092E707E02548406800F00C00616883
:10101000B0EB810FEDD12048006800F00700A84236
:101020000ED91D48006820F0070028431A490860BF
:101030000846006800F00700A84201D0012074E7CC
:10104000207800F00400042807D11448406820F4F8
:10105000E060E168084311494860207800F008002A
:10106000082808D10D48406820F46050216940EA02
:10107000C1000A49486000F03FF808494968C1F3D7
:101080000311074A515CC8400649086006480068D9
:10109000FFF7BCFE002048E700200240001002409D
:1010A000B0910008000000201400002001480068F2
:1010B000704700000000002000B5FFF7F7FF04496B
:1010C0004968C1F30221034A515CC84000BD0000D9
:1010D00000100240C091000800B5FFF7E7FF044987
:1010E0004968C1F3C221034A515CC84000BD0000F9
:1010F00000100240C0910008F0B585B00FF26C0CF2
:101100009CE8E01001A8A0E8E0101CA52D6800955F
:1011100000210022002300240020194D696801F0FD
:101120000C05F5B1042D02D0082D19D101E01548A8
:1011300019E001ADC1F38346AC5D01F4803555B1D2
:101140000F4D6D68C5F340451DF805200D4D6543F5
:10115000B5FBF2F302E00C4D04FB05F3184602E088
:1011600000BF084800BF00BF05B0F0BD0203040582
:10117000060708090A0B0C0D0E0F101001020000E3
:101180000010024000127A0000093D00F8B5044644
:101190000CB90120F8BD207800F00100002878D0BB
:1011A000F848406800F00C0004280CD0F54840686E
:1011B00000F00C00082811D1F248406800F480309B
:1011C000B0F5803F0AD1EF48006800F400300028F5
:1011D0005FD0606800285CD10120DBE700BF606859
:1011E000B0F5803F06D1E748006840F48030E5491B
:1011F000086028E0606858B9E248006820F4803050
:10120000E04908600846006820F4802008601AE081
:101210006068B0F5A02F0BD1DA48006840F4802058
:10122000D84908600846006840F4803008600AE049
:10123000D448006820F48030D2490860084600682D
:1012400020F48020086000BF606888B1FFF7B8FD17
:10125000054606E0FFF7B4FD401B642801D90320D2
:1012600098E7C848006800F400300028F2D010E089
:10127000FFF7A6FD054606E0FFF7A2FD401B642828
:1012800001D9032086E7BF48006800F40030002839
:10129000F2D1207800F00200022857D1B948406806
:1012A00000F00C0050B1B748406800F00C0008286E
:1012B00018D1B448406800F4803098B9B14800684B
:1012C00000F0020020B12069012801D0012061E76F
:1012D000AC48006820F0F800616940EAC100A94903
:1012E000086033E02069E8B10120A7490860FFF7F2
:1012F00067FD054606E0FFF763FD401B022801D9A4
:10130000032047E79F48006800F002000028F2D061
:101310009C48006820F0F800616940EAC1009949E2
:10132000086013E0002098490860FFF749FD054672
:1013300006E0FFF745FD401B022801D9032029E7FD
:101340009048006800F002000028F2D1207800F0F8
:10135000080008282DD1A069B8B101208B49086088
:10136000FFF72EFD054606E0FFF72AFD401B022889
:1013700001D903200EE78348406A00F002000028EC
:10138000F2D0012000F036FC13E000207F49086015
:10139000FFF716FD054606E0FFF712FD401B022889
:1013A00001D90320F6E67748406A00F002000028E1
:1013B000F2D1207800F00400042873D1002771488E
:1013C000C06900F0805070B900BF6E48C06940F03D
:1013D00080506C49C8610846C06900F08050009098
:1013E00000BF00BF01276A48006800F48070B0B9F0
:1013F0006748006840F4807065490860FFF7E0FCCA
:10140000054606E0FFF7DCFC401B642801D90320F9
:10141000C0E65F48006800F480700028F2D000BF8A
:10142000E068012806D15748006A40F0010055499C
:10143000086227E0E06858B95248006A20F00100CD
:10144000504908620846006A20F00400086219E06A
:10145000E06805280BD14B48006A40F00400494978
:1014600008620846006A40F0010008620AE0454848
:10147000006A20F00100434908620846006A20F033
:101480000400086200BFE068A0B1FFF799FC0546C0
:1014900009E0FFF795FC401B41F28831884202D9F0
:1014A000032077E622E03748006A00F002000028B7
:1014B000EFD012E0FFF784FC054608E0FFF780FC60
:1014C000401B41F28831884201D9032062E62D4851
:1014D000006A00F002000028F0D1012F05D1294850
:1014E000C06920F080502749C86100BFE069C8B3D7
:1014F0002448406800F00C00082860D0E069022809
:1015000048D1002020490866FFF75AFC054606E04E
:10151000FFF756FC401B022801D903203AE6194880
:10152000006800F000700028F2D1206AB0F5803F1A
:1015300007D11448406820F40030A16808431149DD
:101540004860D4E9080108430E49496821F4741140
:1015500008430C49486001200B490866FFF730FC3E
:10156000054607E03DE0FFF72BFC401B022801D9B0
:1015700003200FE60348006800F000700028F2D056
:101580002FE000000010024000004242800442426E
:1015900000700040002014490866FFF711FC054662
:1015A00006E0FFF70DFC401B022801D90320F1E5FE
:1015B0000E48006800F000700028F2D111E0E069E8
:1015C000012800D1E6E50948466806F48031206A22
:1015D000814204D106F47011606A814201D0012079
:1015E000D8E50020D6E5000000004242001002408D
:1015F00070B504460E4615461CB1A069B0F5807F53
:1016000001D1012070BD94F8410028B9002084F870
:101610004000204600F020F804F108012068FFF7A0
:10162000EFF83146A2682068FFF726F92946236BB8
:10163000D4E90102FFF7C2F8A168206850F8210040
:1016400040F00100A268216841F82200012084F8DE
:1016500041000020D6E7000010B586B0044600BF68
:101660001E48406940F480701C4948610846406942
:1016700000F48070019000BF00BF00BF0846806981
:1016800040F0200088610846806900F02000019049
:1016900000BF00BF00BF0846806940F0400088617D
:1016A0000846806900F04000019000BF00BF4CF286
:1016B0000370029002200390012004900320059003
:1016C00002A90748FFF7CEF94FF68070029002A9F1
:1016D0000448FFF7C7F906B010BD00000010024033
:1016E000001401400018014070B504462546681EEC
:1016F000B0F1807F01D301200FE0681E4FF0E021A0
:1017000048610F214FF0FF3000F0DEFB00204FF06A
:10171000E021886107200861002070BD704700004B
:101720002DE9F0470446206805682068C6682068EF
:1017300047694FF00008C14605F00F08B8F1000FE7
:101740000AD105F0200038B106F0200020B1204673
:1017500000F096FABDE8F087B8F1000F71D007F0FD
:10176000010018B906F4907000286AD005F0010055
:1017700030B106F4807018B1E06B40F00100E06316
:1017800005F0040030B107F0010018B1E06B40F043
:101790000200E06305F0020030B107F0010018B16B
:1017A000E06B40F00400E06305F0080048B106F08B
:1017B000200010B907F0010018B1E06B40F00800FC
:1017C000E063E06B68B305F0200028B106F020006C
:1017D00010B1204600F054FA20684069C0F3801927
:1017E000E06B00F0080010B9B9F1000F22D02046DC
:1017F00000F026FA2068406900F04000B0B120688F
:10180000406920F0400021684861606B50B1184881
:10181000616B4863606BFFF751F810B1606B416B0F
:1018200088470CE02046FFF779FF08E02046FFF7E5
:1018300075FF04E02046FFF771FF0020E06389E7B1
:10184000FFE705F0800030B106F0800018B12046B7
:1018500000F0E4FA7EE705F0400030B106F0400009
:1018600018B1204600F0FCF974E700BF72E70000F1
:101870002D1C000810B504460CB9012010BDA0694C
:1018800000B100E000BF94F8390028B9002084F8C6
:101890003800204600F028F8242084F83900206819
:1018A000C06820F400502168C860204600F038FA73
:1018B0002068006920F49040216808612068406930
:1018C00020F02A00216848612068C06840F4005078
:1018D0002168C8600020E063202084F8390084F883
:1018E0003A000020CAE7000010B586B00446284937
:1018F000206888424AD100BF00BF2648806940F076
:101900000400244988610846806900F004000190C1
:1019100000BF00BF00BF00BF00BF0846806940F0A5
:10192000040088610846806900F00400019000BF4F
:1019300000BF00BF00BF00BF0846806940F4804080
:1019400088610846806900F48040019000BF00BFB4
:1019500000BF48150290022003900120049003204C
:10196000059002A90C48FFF77DF84FF480600290C3
:101970000020039002A90848FFF774F82520FFF71C
:101980006CFA032211462520FFF777FA06B010BD46
:1019900000380140001002400008014010B5034625
:1019A00093F83A0020282FD101B10AB9012010BDC7
:1019B00000BF93F83800012801D10220F7E7012089
:1019C00083F8380000BF99629A85DA850020D863D1
:1019D000222083F83A0000BF002083F8380000BFBF
:1019E0001868C06840F480701C68E060186840693E
:1019F00040F001001C6860611868C06840F0200079
:101A00001C68E0600020D2E70220D0E710B5044651
:101A10002049206888423BD11F48008800F40040DC
:101A200088BB1D48008800F4804070B11B480078D6
:101A30000A2803D000201849088024E016480088AE
:101A400040F40040144908801DE0144800780D2837
:101A500006D11148008840F480400F49088012E008
:101A60000E4800780C490988C1F30D010C4A505406
:101A700009480088401C0849088008460088C72893
:101A800001DD00200880012204490648FFF786FF97
:101A900010BD0000003801400C0000200E000020A6
:101AA000E0100020A8110020704700BFFEE710B52D
:101AB00008E0002002F0CCFC082800D110BD0A206C
:101AC00001F050F9F5E7F8B504460D4616461F46F5
:101AD0004FF478403B46324629460090204602F0BB
:101AE000D0FEF8BD10B50246012000E050430B1EA9
:101AF000A1F10104E1B2F9D110BD2DE9FE43044684
:101B00000D4616461F46DDE90A8900203B4632464F
:101B10002946CDE900890290204606F02BF8BDE861
:101B2000FE832DE9FF4F83B0064692461F46DDE94E
:101B3000104800200290002553E0781B401EC1B2DF
:101B40000A20FFF7CFFFBAFBF0F00A21B0FBF1F259
:101B500001FB1209029870BB781EA8422BDDB9F177
:101B6000000F26D108F0800088B1002108F00100A4
:101B7000A346CDE9000104EBDB71491001FB0561CF
:101B800088B223463022049905F054FF10E000216A
:101B900008F00100A346CDE9000104EBDB71491018
:101BA00001FB056188B223462022049905F042FF1B
:101BB00015E001200290002108F00100A346CDE9C4
:101BC000000104EBDB71491001FB056188B209F1EA
:101BD0003001CAB22346049905F02CFF00BF681CEF
:101BE000C5B2BD42A9DB07B0BDE8F08F00BFFEE77C
:101BF0007047704708B508490968C9084FF47A72F8
:101C0000B1FBF2F14143009100BF00BF00994A1EB1
:101C100000920029F9D108BD00000020704710B5DE
:101C2000FFF7D4F806F0D2FB10BD704770B505463B
:101C30006C6A0020E085E0842046FFF76FFD70BDF0
:101C40000168C96821F490710268D160016849692E
:101C500021F0010102685161202180F83A1070479B
:101C600010B504462068C06820F040002168C860B4
:101C7000202084F839002046FFF716FF002010BD11
:101C800070B5044694F83A00222847D1A068B0F510
:101C9000805F0CD1206950B90025A66A2068406891
:101CA000C0F308003080A06A801CA06215E0A56A1D
:101CB0000026A068B0F5805F03D0A06828B920692D
:101CC00018B920684068287004E02068406800F077
:101CD0007F002870A06A401CA062E08D401E80B288
:101CE000E085C8B92068C06820F020002168C8607D
:101CF0002068C06820F480702168C860206840694E
:101D000020F0010021684861202084F83A00204634
:101D1000FFF77CFE002070BD0020FCE70220FAE700
:101D200070B504462168096921F44051E268114305
:101D3000226811612269A1681143626941EA0205C2
:101D40002168C96841F20C62914329432268D1603D
:101D50002168496921F44071A269114322685161E7
:101D60002D4A2168914202D1FFF7B6F901E0FFF751
:101D7000A3F900EBC00101EB001162689200B1FB16
:101D8000F2F100EBC00202EB001263689B00B2FBB1
:101D9000F3F26423B2FBF3F202EBC20303EB021291
:101DA000A1EB8201322202EB01116422B1FBF2F1BC
:101DB00001F0F00100EBC00202EB001263689B002F
:101DC000B2FBF3F26423B2FBF3F201EB021200EB7D
:101DD000C00101EB001163689B00B1FBF3F100EB64
:101DE000C00303EB00136668B600B3FBF6F364268A
:101DF000B3FBF6F303EBC30606EB0313A1EB83017E
:101E0000322303EB01116423B1FBF3F101F00F0165
:101E100011442268916070BD00380140014691F87C
:101E20003900212828D18868B0F5805F0BD1086976
:101E300048B90A6A1088C0F308000B685860086A3D
:101E4000801C086205E00B6A581C086218780B6851
:101E50005860C88C401E80B2C88458B90868C068F1
:101E600020F080000B68D8600868C06840F040002F
:101E70000B68D860002070470220FCE710B50248CC
:101E8000FFF74EFC10BD0000A811002000BFFEE7C8
:101E9000490050EAC12018BF04204A0D18BF40F085
:101EA000010040F2FF72B2EB515F08BF40F0020048
:101EB000012808BF0520704702480068C0F30220CF
:101EC000704700000CED00E010B5002804DB0A07A5
:101ED000130E054A135406E00A07140E034A00F0D5
:101EE0000F031B1FD45410BD00E400E018ED00E008
:101EF0002DE9F74F144694B00021C4E90211159959
:101F0000079121F00045C9498D4206DC1599C4E9C5
:101F1000000117B00020BDE8F08FC549DFF814A319
:101F2000A9423CDD0799C44E0029C44FC44A159903
:101F3000534619DD06F008FE554506D0C14AC24B8E
:101F400006F002FEC4E900010AE04FF0D352BE4B96
:101F500006F0FAFD32463B4606F0F6FDC4E9000104
:101F600017B00120BDE8F08F06F054FA554506D0B1
:101F7000B44AB54B06F04EFAC4E900010AE04FF04E
:101F8000D352B14B06F046FA32463B4606F042FACF
:101F9000C4E9000117B04FF0FF30BDE8F08FAB4946
:101FA000A942159978DB21F0004183468846A84A6A
:101FB000A84B06F0BFFC0022A74B06F02BFA06F058
:101FC00031FC099006F08BFC06460F469C4A5346AE
:101FD00006F0B0FC43465A4606F0AAFD80468A4603
:101FE000984A994B3046394606F0A4FC2A0D012543
:101FF0000B924246534606F09BFD032DC4E90001B7
:1020000039D00B98C1F30A51401A05EB451111392B
:10201000814230DA9148C346784400EB0510CDF890
:102020000CA00C90D0E900233046394606F082FC23
:1020300002460B46049106905846039906F084FD2B
:1020400080468A4602460B465846039906F07CFDB8
:10205000049B069A06F078FD83460C980391394656
:10206000D0E90223304606F065FC5A46039B06F091
:102070006BFD6D1CBDE707980028A2BF099817B03B
:10208000BDE8F08F616881F000416160099817B088
:102090004042BDE8F08FFFE784461598C1F3130175
:1020A000C0F30A50A0F2F5304FEA601800F01F06A6
:1020B000C6F12000139000200690079041F4801E86
:1020C00005206D4676B1664A08EB00017A4452F865
:1020D000213002EB8101B3404A68139922FA01F1E1
:1020E000194305E05F4908EB0002794451F82210DA
:1020F000A1FB0E27A1FB0C131A449A4234BF012303
:10210000002303EB070A05EB8003D3E901B70F4473
:102110008F4234BF0121002193448B4411B1934578
:1021200002D903E0934501D2012100E00021C3E977
:1021300001B7514445F82010011EA0F10100C1DC97
:102140000298059F00F10050800F12900298DDE97F
:102150000356800006F0C3FB834628460D9106F027
:10216000D5FB6FF01D0206F0DDFFCDE90E01304614
:1021700006F0CCFB6FF03D0206F0D4FF80468A46A5
:10218000384606F0C3FB6FF05D0206F0CBFF074652
:1021900042465346119106F03DF9DDE90E2306F063
:1021A00039F95A460D9B06F035F900250E465A4678
:1021B00028460D9B06F0C8FCDDE90E2306F0C4FCA2
:1021C0004246534606F0C0FC3A46119B06F0B0FC6E
:1021D000DFF898A0244A534606F0ACFB0746884631
:1021E000234A244B3146284606F0A4FB3A46434690
:1021F00006F010F9074688464FF0A842534631468C
:10220000284606F097FB3A46434606F003F9159A2E
:1022100012F0004F04D0129A81F000415242129203
:10222000C4E90001129817B0BDE8F08FFB21E93F27
:102230007CD90240FB21F93F7370032E8A19A33B1E
:10224000000040543163621A61B4D03DFB21394132
:1022500083C8C96D305FE43F0000E03F8CA10000FF
:1022600008A10000EAA00000182D4454FB21F93D0C
:102270003326A611460B113C2DE9FF4D21F00048F5
:1022800007460C46B8F1795F08DA06F0CBFA002869
:1022900001BF0020324904B0BDE8F08D3A46234624
:1022A0001046194606F046FB054602462D480E46E6
:1022B0000B460621784400F05DF82A46334606F0C6
:1022C00039FBDDE9022382468B463846214606F07B
:1022D00031FB04460F4652465B462846314606F01F
:1022E00029FB22463B4606F02FFC07468A464FF064
:1022F000FF322846314606F015FF1B4A90450ADAA0
:102300003A46534606F020FC04B00022BDE8F04DEA
:10231000134B06F00DBC154A4245A8BFA8F50015A1
:102320004FF00004B8BF124D22462B4606F00CFCBD
:102330000646884622462B460020094906F004FC42
:1023400004460D463A4653463046414606F0FCFBED
:1023500004B022462B46BDE8F04D06F0E9BB000074
:102360000000F03FC09E00003333D33F0000E93F40
:102370000000D23F2DE9F0414F1E00EBC70104469B
:10238000D1E9000115461E4637F006020DD02A4657
:10239000334606F0CFFA7F1E04EBC703D3E90023D0
:1023A00006F038F837F00602F1D1022F25D0042FBD
:1023B00013D0062F18BFBDE8F0812A46334606F039
:1023C000B9FAD4E90A2306F025F82A46334606F07E
:1023D000B1FAD4E9082306F01DF82A46334606F080
:1023E000A9FAD4E9062306F015F82A46334606F082
:1023F000A1FAD4E9042306F00DF82A46334606F084
:1024000099FAD4E9022306F005F82A46334606F085
:1024100091FAD4E90023BDE8F04105F0FBBF0000CC
:102420002DE9FF4D054621F0004084B00C46B0F187
:10243000795F0BDA2846FFF72BFD042808BF00F070
:102440006FF8284608B02146BDE8F08D2A460B46B5
:10245000104606F06FFA06460F462A46234606F057
:1024600069FA804626488A4632463B46052178442A
:10247000FFF780FF83461098029160B3214A224BF8
:102480004046514606F056FACDE900015A4640460C
:102490005146029B06F04EFA82468846DDE9060167
:1024A0004FF0FF3206F03EFE5246434606F04CFB2C
:1024B00032463B4606F03EFADDE9062306F044FBD1
:1024C000DDE9002306F040FB08B02A462346BDE8BC
:1024D000F04D06F02DBB0B465A463046394606F005
:1024E00029FA084A084B05F095FF4246534606F084
:1024F00021FA08B02A462346BDE8F04D05F08ABF10
:10250000FE9D0000495555555555C5BF012206F0A1
:1025100009BE002213461046114606F02BB80000F3
:10252000024A0020110706F0FDBD000001FDFFFF7B
:1025300000BF704700BF704708B5FEF753FC4FF46B
:10254000E01005F05BFE482000F006FC4FF4E1309F
:1025500005F044FF05F098FB04F078FE01F0D0FF91
:10256000002002F069F810204FF448734FF4F07225
:1025700008490090084801F01FFE01F095FCFFF7A4
:1025800096FA002002F058F801F052FE01F0F4FE35
:1025900008BD0000CC100020B81000202DE9F84F35
:1025A00006460F4690461D46DDF8289000244FF45D
:1025B000C871F02000F03EF800BF06E0002048F8A7
:1025C000340008EBC4014860641C0A2CF6DB0024CC
:1025D00009E055F8340028B1002045F8340005EB37
:1025E000C4014860641C642CF3DB002409E059F842
:1025F000340028B1002049F8340009EBC4014860D8
:10260000641CB4F5967FF2DBD6F800A0AAF10100B5
:102610003060002040F2EE2340F2DF1229210090CA
:10262000012004F0E9FDD7E9000101F0D3F8BDE88D
:10263000F88F00002DE9F04F85B005460E46C824FE
:102640004FF0120A032004900F200390424903C95F
:10265000CDE9010100273AE04FF0000819E04FEA08
:102660004A0008FB1079B9F1000F00DC0FE00320ED
:1026700098FBF0F100FB118001A931F810B009F0CE
:10268000FF02B1B2A8B25B4602F0A6F800BF08F1A3
:10269000010804988045E2DB039988B200F062FBF0
:1026A000A74213DA002006EB040C1FFA8CF305EBAB
:1026B000040C1FFA8CF2A6EB040C1FFA8CF1A5EBAC
:1026C000040C00901FFA8CF004F096FD5744A742CA
:1026D000C2DD4FF6FF70274604EBD77C06EB6C0C8F
:1026E0001FFA8CF3A04604EBD87C05EB6C0C1FFAA8
:1026F0008CF2A14604EBD97CA6EB6C0C1FFA8CF192
:10270000A34604EBDB7CA5EB6C0C00901FFA8CF06D
:1027100004F072FD322000F025FB002004EBD77C92
:1027200006EB6C0C1FFA8CF304EBD87C05EB6C0CFD
:102730001FFA8CF204EBD97CA6EB6C0C1FFA8CF11F
:1027400004EBDB7CA5EB6C0C00901FFA8CF004F022
:1027500053FD05B0BDE8F08F48C100082DE9F843EE
:102760000746884616461C460025A94600BF5AE083
:1027700056F83500002855D056F835102268881ACA
:10278000002801DB014600E0414229294ADC06EB32
:10279000C50149686268881A002801DB014600E02B
:1027A000414229293EDC00200090B4F804C00CF11D
:1027B000280C1FFA8CF3B4F800C00CF1280C1FFA97
:1027C0008CF2B4F804C0ACF1280C1FFA8CF1B4F808
:1027D00000C0ACF1280C1FFA8CF004F00DFD0020B5
:1027E00046F8350006EBC5014860D7F8009009F1BE
:1027F00001003860D8F80090A9F10100C8F8000085
:1028000000BF002220210A48FEF7D4FA00BF14209E
:1028100000F0A8FA00BF012220210548FEF7CAFAFD
:1028200000BF02E06D1C642DA2DB00BFBDE8F88391
:10283000001801402DE9F84380460F461546002454
:102840000026A14600BF67E055F83400002862D09A
:1028500000265DE057F8361055F83420881A002815
:1028600001DB014600E041420F2950DC07EBC601C5
:10287000496805EBC4025268881A002801DB01464A
:1028800000E041420F2942DC002005EBC40C00901F
:10289000BCF804C00CF10E0C1FFA8CF335F834C0F0
:1028A0000CF10E0C1FFA8CF205EBC40CBCF804C042
:1028B000ACF10E0C1FFA8CF135F834C0ACF10E0CF3
:1028C0001FFA8CF004F098FC002047F8360007EB64
:1028D000C601486045F8340005EBC4014860D8F8EB
:1028E000009009F10100C8F8000000BF002220217B
:1028F0000B48FEF75FFA00BF142000F033FA00BF68
:10290000012220210648FEF755FA00BF02E0761C9E
:10291000642E9FDB00BF641C0A2C95DBBDE8F883A6
:10292000001801402DE9F0478046894615461E46AD
:10293000089F4FF0000A002400BF58E055F834000B
:10294000002853D055F834103A68881A002801DB63
:10295000014600E041420F2948DC05EBC40149680B
:102960007A68881A002801DB014600E041420F29FD
:102970003CDCF02038604FF434707860002409E0CB
:1029800056F8340028B1002046F8340006EBC401A4
:102990004860641C642CF3DB002409E055F8340023
:1029A00028B1002045F8340005EBC4014860641CE0
:1029B000B4F5967FF2DBD8F800A0AAF10100C8F8C0
:1029C00000000120C9F8000000BF002220210B48B0
:1029D000FEF7F0F900BF142000F0C4F900BF012297
:1029E00020210648FEF7E6F900BF03E0641CB4F5B9
:1029F000967FA3DB00BFBDE8F0870000000C01401C
:102A00002DE9FC5F0746884693461D46DDE90D9A91
:102A10000C9E00240020019000BFA2E056F8340074
:102A200000287DD056F834102A68881A002801DB67
:102A3000014600E041421C2972DC06EBC4014968F2
:102A40006A68881A002801DB014600E041421C291F
:102A5000F2DC00200090B5F804C00CF10E0C1FFA57
:102A60008CF3B5F800C00CF10E0C1FFA8CF2B5F81F
:102A700004C0ACF10E0C1FFA8CF1B5F800C0ACF13B
:102A80000E0C1FFA8CF004F0B7FB002006EBC40C10
:102A90000090BCF804C00CF10E0C1FFA8CF336F851
:102AA00034C00CF10E0C1FFA8CF206EBC40CBCF80F
:102AB00004C0ACF10E0C1FFA8CF136F834C0ACF146
:102AC0000E0C1FFA8CF004F097FBF02028604FF4F6
:102AD00034706860002046F8340006EBC40148609A
:102AE000002409E059F8340028B1002049F83400E6
:102AF00009EBC4014860641C642CF3DB002409E08A
:102B00005AF8340028B100204AF834000AEBC40116
:102B10004860641CB4F5967FF2DB3868019000E0F1
:102B20001EE00198401C3860D8F800000190019820
:102B3000401EC8F800000120CBF8000000BF0022B2
:102B400020210B48FEF736F900BF142000F00AF9E7
:102B500000BF012220210648FEF72CF900BF03E048
:102B6000641C0A2CFFF65AAF00BFBDE8FC9F0000B2
:102B7000000C01402DE9F8430746884615461E46DD
:102B8000002400BF06E0002048F8340008EBC40130
:102B90004860641C0A2CF6DB002409E055F8340078
:102BA00028B1002045F8340005EBC4014860641CDE
:102BB000642CF3DB002409E056F8340028B100202F
:102BC00046F8340006EBC4014860641CB4F5967FF7
:102BD000F2DB002040F2EE2340F2DF1229210090C8
:102BE000012004F009FBD7E9000100F0F3FDBDE886
:102BF000F88370B504460CB1206800B970BDD4E903
:102C000001014843216900FB01F529462068FDF7D1
:102C100003FC00BFF2E72DE9F05F04460D461646BF
:102C20001F46DDF828800CB1206808B9BDE8F09F88
:102C3000002D00DA0025002E00DA0026E819616870
:102C4000884201DD6068471B06EB0800A1688842E6
:102C500002DDA068A0EB0608002F02DDB8F1000F2E
:102C600000DCE3E72169606800FB01FA4FF000092E
:102C70000FE006EB0901206801FB0A00216905FB52
:102C8000010B206900FB07F15846FDF7C5FB09F170
:102C90000109C145EDDB00BFC8E7000000B5244BCA
:102CA00021F0004287B09A42DCBF0022134629DDA2
:102CB000204B9A4208D140B94FF00100FDF751FC7A
:102CC000FFF727FC07B000BD03DBFFF71FFC07B0D1
:102CD00000BD02AAFFF70CF910F0030104BF0DF1CB
:102CE000080C9CE80F000DD0012001290ED002290C
:102CF00014D00DF1080C00909CE80F00FFF790FB3A
:102D000007B000BDFFF7B8FA07B000BD0DF1080C21
:102D100000909CE80F00FFF783FB05E00DF1080C25
:102D20009CE80F00FFF7A8FA07B081F0004100BD52
:102D3000FB21E93F0000F07F70B501F037FC04464D
:102D4000142001F0D5FB01F031FC0546AC4201D165
:102D5000204670BD0020FCE7014908607047000074
:102D60000400002010B504464FF47A7104FB01F012
:102D700000F002F810BD000070B5034600224FF0CD
:102D8000E02675690D4E366803FB06F44FF0E02629
:102D9000B16910E04FF0E026B06988420BD088425C
:102DA00002D20E1A324402E02E1A0E443244014678
:102DB000A24200D300E0EDE700BF70BD0400002098
:102DC00070B50546002400BF0AE055F8340030B164
:102DD00005EBC40255F83400516800F0CFFA641CCA
:102DE000B4F5967FF1DB70BD70B50546002400BFD9
:102DF0000AE055F8340030B105EBC40255F8340050
:102E0000516800F0F1FA641C0A2CF2DB70BD70B559
:102E10000546002400BF0AE055F8340030B105EB48
:102E2000C40255F83400516800F09EFC641C642C08
:102E3000F2DB70BD00B587B00B4A0C4B0C48A0F11B
:102E40005001CDE90432CDE902106038A0F24461AE
:102E5000A0F5CC63CDE900101A69D968186814335D
:102E600000F0E0FC07B000BDCC100020B81000203E
:102E7000540700202DE9F04F99B005460E4617463D
:102E80004FF6E0794FF4784017904FF6FF701690A8
:102E90007C0007EB4708384605F021FD00224FEA89
:102EA0008933CDE9100105F045FDCDE9120105F0AA
:102EB000B9FC8246384607EBD07149101591A346FC
:102EC000E31704EB9373C3F38702B1B2A8B24B4686
:102ED00001F082FC04EBDB735B10DB1DDAB2B1B2F4
:102EE000A8B24B4601F078FC04EBDB7CA5EB6C0C44
:102EF000ACEB0A0C1FFA8CF24FEAE87C08EB9C7CE6
:102F0000A6EBAC0C1FFA8CF104EBD47CA5EB6C0C9B
:102F10001FFA8CF0B3B2CDF80090CDE9134801F060
:102F2000B0FC04EBDB7CA5EB6C0CACEB0A0C1FFAE1
:102F30008CF24FEAE87C08EB9C7C06EBAC0C1FFAA9
:102F40008CF104EBD47CA5EB6C0C1FFA8CF0B3B2C3
:102F5000CDF80090CDE9134801F093FC04EBDB7C45
:102F600005EB6C0CD4441FFA8CF24FEAE87C08EBBA
:102F70009C7CA6EBAC0C1FFA8CF104EBD47C05EB2B
:102F80006C0C1FFA8CF0B3B2CDF80090CDE9134869
:102F900001F077FC04EBDB7C05EB6C0CD4441FFAEE
:102FA0008CF24FEAE87C08EB9C7C06EBAC0C1FFA39
:102FB0008CF104EBD47C05EB6C0C1FFA8CF0B3B2F3
:102FC000CDF80090CDE9134801F05BFC159BDAB217
:102FD000B1B2A8B2179B01F0FFFBDDF854B00BEBC8
:102FE000DB73C3F34702B1B2A8B2169B01F0F4FB46
:102FF000032097FBF0F0A346E11704EB9171A5EBDA
:10300000A1011490481F3146169B149A00F0D4FA7F
:10301000032097FBF0F0E11704EB917105EBA101A0
:103020001490481D3146169B149A00F0C5FA4FF0D3
:10303000000B80E0CBEB0B1000EB400014901498D9
:1030400005F05AFF3F49019005F06EFF3E4902909E
:1030500005F090FE039005F061FECDE90401FFF755
:103060001DFE1094CDE9080104EBD4714910FA1744
:1030700007EB927201EBA200119705F030FCCDE94D
:103080000601DDE9082305F055FCCDE90C012846D1
:1030900005F025FCCDE90A01DDE90C2305F0BAF9BC
:1030A000CDE90E0105F0BEFB1390149805F024FF46
:1030B0002449019005F038FF2349029005F05AFE9B
:1030C000039005F02BFECDE9040104F0B3FF10944A
:1030D000CDE9080104EBD4714910FA1707EB92729D
:1030E00001EBA200119705F0FAFBCDE90601DDE93D
:1030F000082305F01FFCCDE90C01304605F0EFFB7D
:10310000CDE90A01DDE90C2305F084F9CDE90E01D2
:1031100005F088FB129016980090DDF848C01FFA61
:103120008CF3DDF84CC01FFA8CF2B1B2A8B201F0FA
:10313000A8FB0BF1010BBBF1080FFFF67BAF19B039
:10314000BDE8F08FD00F4940000034437CB5054600
:103150000C461646002001F06FFA72A020211823B9
:10316000C822CDE900101146A020FEF7C6FC6DA0D4
:1031700020211823C822CDE900101146A020FEF717
:10318000BCFC6BA018210B46C822CDE9001040F210
:103190000511AF20FEF7B1FC00201821CDE9001089
:1031A00004234FF49171B9202A68FEF7BAFC206815
:1031B00020B9306810B92868206092E020680028A3
:1031C0003DD0306800283AD12068306028682060FF
:1031D00054A020211823C822CDE900101146A020B8
:1031E000FEF78BFC52A018210B46C822CDE9001037
:1031F00040F20511AF20FEF780FC00201821CDE938
:10320000001004234FF49171B9203268FEF789FC55
:103210004BA018210B46C822CDE9001040F24B11FB
:10322000AF20FEF76AFC00201821CDE9001004232E
:103230004FF4B471B9202268FEF773FC51E02068A6
:1032400000284ED0206800284BD036A0202118231B
:10325000C822CDE900101146A020FEF74EFC34A094
:1032600018210B46C822CDE9001040F20511AF200D
:10327000FEF743FC00201821CDE9001004234FF491
:103280009171B9203268FEF74CFC2DA018210B4635
:10329000C822CDE9001040F24B11AF20FEF72DFC03
:1032A00000201821CDE9001004234FF4B471B92097
:1032B0002268FEF736FC26A018210B46C822CDE96D
:1032C000001040F291118720FEF717FC0020182112
:1032D000CDE9001004234FF4D771B9202A68FEF716
:1032E00020FC002028604FF40C71B42000F072FA2A
:1032F0004FF40C71D22000F06DFA4FF40C71F020F5
:1033000000F068FA00F084FB16A018210B464FF479
:103310009672CDE9001040F265216420FEF7EDFBC6
:103320007CBD000047414D45204F564552000000EE
:1033300046495253542053434F52453A000000002F
:103340005345434F4E442053434F52453A000000EB
:10335000544845204C4153544553542053434F52F5
:10336000453A000050726573732053544152542003
:10337000746F20434F4E54494E55450070B5044676
:103380000D466A1E91B2621E90B24FF4FC6201F0CB
:10339000CFFA6A1E91B2A0B24FF4FC6201F0C8FAF3
:1033A0006A1E91B2621C90B24FF4FC6201F0C0FA46
:1033B000A9B2621E90B24FF4FC6201F0B9FAA9B250
:1033C000A0B24FF4FC6201F0B3FAA9B2621C90B251
:1033D0004FF4FC6201F0ACFA6A1C91B2A0B24FF457
:1033E000FC6201F0A5FA70BD38B505460C46042311
:1033F000062204F10A01284600F0A8FBA4F10A0104
:10340000A81E1423042200F00CFCA11E09230C2288
:10341000A81C00F0D2FBA11EA81E09230C2200F05C
:1034200042FC0420A4F10A010E2306220090284643
:1034300000F06DFC38BD2DE9FE4F04460D461646E2
:1034400099462746A5EB090A304606EBD071A4EB56
:1034500061010291A84606EBD07104EB6101019174
:10346000AB461F201FFA88F30090DDF808C01FFA52
:103470008CF21FFA8AF1B8B201F003FA1F201FFA8A
:103480008BF30090DDF804C01FFA8CF21FFA8AF16A
:10349000B8B201F0F6F9BDE8FE8F00002DE9F04763
:1034A00004460D46DFF808C1DCF8006006EBD67C68
:1034B00005EB6C0C1FFA8CF3DFF8F8C0DCF8007039
:1034C00007EBD77C04EB6C0C1FFA8CF2DFF8E0C042
:1034D000DCF8008008EBD87CA5EB6C0C1FFA8CF1B3
:1034E000DFF8D0C0DCF8009009EBD97CA4EB6C0CC1
:1034F0001FFA8CF0FEF7E7FADFF8B4C0DCF80060E2
:1035000006EBD67CA5EB6C0C1FFA8CF3DFF8A4C09D
:10351000DCF8007007EBD77C04EB6C0C1FFA8CF224
:10352000DFF88CC0DCF8008008EBD87C05EB6C0C75
:103530001FFA8CF1DFF87CC0DCF8009009EBD97C35
:10354000A4EB6C0C1FFA8CF0FEF7BDFADFF864C038
:10355000DCF8007007EBD77C04EB6C0C1FFA8CF2E4
:10356000DFF850C0DCF8006006EBD67CA4EB6C0CF6
:103570001FFA8CF0ABB2A9B2FEF7A5FADFF830C0A3
:10358000DCF8006006EBD67CA5EB6C0C1FFA8CF324
:10359000DFF81CC0DCF8007007EBD77C05EB6C0C87
:1035A0001FFA8CF1A2B2A0B2FEF78DFABDE8F08747
:1035B0004C000020480000202DE9FF4F99B00D4637
:1035C00016469946002462E0C4EB041080001E38C1
:1035D0000C900C9805F090FC4449019005F0A4FC77
:1035E0004349029005F0C6FB039005F097FBCDE937
:1035F0000401FFF753FBCDE90601304605F06FF9F2
:103600000746DDE9062305F095F982468B461998B1
:1036100005F065F952465B46CDE9080104F0FAFE73
:10362000CDE90A0105F0FEF80DA941F834000C9827
:1036300005F062FC2D49019005F076FC2C490290C2
:1036400005F098FB039005F069FBCDE9040104F057
:10365000F1FC07468846304605F041F982463A4675
:10366000434605F067F9CDE90801284605F037F92A
:10367000CDE90601DDE9082304F0CCFECDE90A011D
:1036800005F0D0F80DA901EBC4014860641C062CBC
:103690009ADB002425E0601C062190FBF1F201FB7F
:1036A00012000DA901EBC000808887B2601C0621C2
:1036B00090FBF1F201FB12000DA931F830001FFA66
:1036C00080F80DAA02EBC402CDF80090928891B266
:1036D0000DAA32F8342090B23B46424601F0D1F8B0
:1036E000641C062CD7DB1DB0BDE8F08FD00F49401D
:1036F000000034432DE9FE4F04460D4692469B469A
:1037000026462F46A4EB0A000290A846A146A5EB48
:103710000B0001901F201FFA88F30090DDF808C00D
:103720001FFA8CF2B9B2B0B201F0ABF81F200090D2
:10373000DDF804C01FFA8CF31FFA89F2B9B2B0B2F7
:1037400001F09FF81F200090DDF804C01FFA8CF3F1
:103750001FFA89F21FFA88F1DDF808C01FFA8CF011
:1037600001F08FF8BDE8FE8F70B504460D466A1E65
:1037700091B2A0B24FF61F0201F0DAF8A9B2621EB0
:1037800090B24FF61F0201F0D3F8A9B2A0B24FF6E3
:103790001F0201F0CDF8A9B2621C90B24FF61F02D1
:1037A00001F0C6F86A1C91B2621E90B24FF61F0279
:1037B00001F0BEF86A1C91B2A0B24FF61F0201F0F0
:1037C000B7F86A1C91B2621C90B24FF61F0201F06A
:1037D000AFF870BD38B505460C46A4F10A010423C4
:1037E00006222846FFF727FEA4F10A01A81E14238B
:1037F000042200F061F9A81E09230C22A11CFFF786
:1038000079FF09230C22A11CA81C00F0D8FA04207F
:103810000E23062204F10A010090284600F0C8FB9E
:1038200038BD00002DE9F84F06460F4690461C466D
:10383000DDE90B5BDDF828A0DDF83C90484604F09C
:10384000F3FB4B48006858B94A480068864207D1E4
:1038500049480068874203D148480068804514D031
:103860001E204FF4A0730022114600904846FFF737
:10387000D2F942463946304600F086F83D480660A7
:103880003D4807603D48C0F8008039480068B8B935
:103890003B4920680968884204D139496068496811
:1038A00088420DD01420009035484068A0F10A02EB
:1038B00033480068A0F10A0114234846FFF7ABF92A
:1038C000D4E90001FFF786FF2D4920680860606891
:1038D0004860286828B326480068B8B9294928688C
:1038E0000968884212D027496868496888420DD023
:1038F0003220009023484068A0F119022148006856
:10390000A0F1190132234846FFF785F92022D5E9B5
:103910000001FFF7AFFA1B49286808606868486033
:1039200014E01848006888B13220009015484068BB
:10393000A0F1190213480068A0F11901322348468A
:10394000FFF769F900200F49086048605046FFF70B
:103950005EFA5846FFF748FA0D98FFF731FA4946E4
:103960000E9804F0B7FB002001490860BDE8F88F0D
:103970007C0000206000002064000020680000201F
:103980006C000020740000202DE9FC4106460F4623
:10399000154600244FF0C3080020182104233246A6
:1039A000CDE9001008214B20FEF7BBF800201923B9
:1039B000E2220F210090BE2003F01EFC00BF09E0B0
:1039C00004EB840101EBC40101EB08001421FFF7B3
:1039D00065FD641CBC42F3DB75B1002409E004EB17
:1039E000840101EBC40101F5BE701421FFF756FDFF
:1039F000641CAC42F3DB09E000201E234FF4C272CA
:103A00000F21009040F2771003F0F6FBBDE8FC8137
:103A100070B5002004F026FC0446FCF7DFFC00240F
:103A200047E0062C15DAFCF7DBFB4FF4F07190FB56
:103A3000F1F201FB1205FCF7D3FBC82190FBF1F278
:103A400001FB120000F5FA763146284600F0F2F943
:103A50002EE00C2C16DAFCF7C3FB4FF4F07190FB50
:103A6000F1F201FB1205FCF7BBFB4FF4967190FBE2
:103A7000F1F201FB120000F1C8063146284600F0C1
:103A8000D9F915E0122C13DAFCF7AAFB4FF4F07108
:103A900090FBF1F201FB1205FCF7A2FBC82190FBA1
:103AA000F1F201FB12063146284600F0C3F900BFCF
:103AB000641C182CB5DB70BD2DE9FF4F83B00446A4
:103AC0000D4626462F46059804EB0008A946B34646
:103AD000069805EB000ACDF80880CDF804A01F2059
:103AE0001FFA89F31FFA88F2B9B20090B0B200F061
:103AF000C8FE1F201FFA8AF31FFA8BF2B9B200909A
:103B0000B0B200F0BEFE1F201FFA89F31FFA88F240
:103B10000090DDF804A01FFA8AF1DDF808801FFA92
:103B200088F000F0AEFE1F201FFA8AF31FFA8BF216
:103B30000090DDF804A01FFA8AF1DDF808801FFA72
:103B400088F000F09EFE07B0BDE8F08F2DE9FC5F25
:103B500005460C4617469946384607EBD071A5EB4B
:103B6000610A264607EBD07105EB610BA046019573
:103B700004EB090000901FFA88F31FFA8BF2B1B230
:103B80001FFA8AF0FDF79FFFDDF800C01FFA8CF3E3
:103B9000019DAAB2B1B21FFA8AF0FDF794FFDDF8D9
:103BA00000C01FFA8CF3019DAAB21FFA88F11FFA18
:103BB0008BF0FDF788FFBDE8FC9F2DE9FC5F044614
:103BC0000D4692469B4626462F4604EB0A0001907E
:103BD000A846A14605EB0B0000901FFA88F3DDF81C
:103BE00004C01FFA8CF2B9B2B0B2FDF76CFFDDF879
:103BF00000C01FFA8CF31FFA89F2B9B2B0B2FDF718
:103C000062FFDDF800C01FFA8CF31FFA89F21FFA79
:103C100088F1DDF804C01FFA8CF0FDF754FFBDE811
:103C2000FC9F2DE9FF4F83B004460D4626462F46E4
:103C3000059804EB0008A946B346069805EB000A70
:103C4000CDF80880CDF804A01FFA89F31FFA88F296
:103C5000B9B2B0B2FDF737FF1FFA8AF31FFA8BF241
:103C6000B9B2B0B2FDF72FFF1FFA89F31FFA88F23D
:103C7000DDF804A01FFA8AF1DDF808801FFA88F049
:103C8000FDF721FF1FFA8AF31FFA8BF2DDF804A07B
:103C90001FFA8AF1DDF808801FFA88F0FDF713FF9C
:103CA00007B0BDE8F08F2DE9FC5F04460D46924653
:103CB0009B4626462F46A4EB0A000190A846A14643
:103CC00005EB0B0000901FFA88F3DDF804C01FFA23
:103CD0008CF2B9B2B0B2FDF7F6FEDDF800C01FFA03
:103CE0008CF31FFA89F2B9B2B0B2FDF7ECFEDDF841
:103CF00000C01FFA8CF31FFA89F21FFA88F1DDF871
:103D000004C01FFA8CF0FDF7DEFEBDE8FC9F2DE934
:103D1000F04F85B005460C4616461F46DDF838A024
:103D2000304606EBD071A5EB61010491A04606EB8D
:103D3000D07105EB61010391A146384607EBD071C4
:103D4000A5EB610BA4EB0A000290384607EBD0719B
:103D500005EB61010191A4EB0A000090DDF808C0B9
:103D60001FFA8CF31FFA8BF21FFA88F1DDF810C0EE
:103D70001FFA8CF0FDF7A7FE1FFA89F3DDF80CC0DF
:103D80001FFA8CF2DDF800C01FFA8CF1DDF804C0D8
:103D90001FFA8CF0FDF797FEDDF808C01FFA8CF3D0
:103DA0001FFA8BF2DDF800C01FFA8CF1DDF804C0B9
:103DB0001FFA8CF0FDF787FE05B0BDE8F08F2DE906
:103DC000FE4F04460D4692469B4626462F4604EB80
:103DD0000A000290A846A146A5EB0B0001901F2007
:103DE0001FFA88F30090DDF808C01FFA8CF2B9B210
:103DF000B0B200F046FD1F200090DDF804C01FFAAD
:103E00008CF31FFA89F2B9B2B0B200F03AFD1F206C
:103E10000090DDF804C01FFA8CF31FFA89F21FFA34
:103E200088F1DDF808C01FFA8CF000F02AFDBDE82B
:103E3000FE8F00002DE9F04104460D46DFF860C01A
:103E4000DCF8006006EBD67C05EB6C0C1FFA8CF3FB
:103E5000DFF84CC0DCF8007007EBD77CA5EB6C0CEE
:103E60001FFA8CF1A2B2A0B2FDF72DFEDFF834C02C
:103E7000DCF8007007EBD77C04EB6C0C1FFA8CF2BB
:103E8000DFF820C0DCF8006006EBD67CA4EB6C0CFD
:103E90001FFA8CF0ABB2A9B2FDF715FEBDE8F081B8
:103EA0005C000020580000201CB519A02021182318
:103EB000C822CDE90010E621A020FDF71EFE17A0C4
:103EC00020211823C822CDE9001040F20511AF20AF
:103ED000FDF713FE4FF4C371BE20FFF77BFC4FF4D8
:103EE000C371DC20FFF776FC4FF4C371FA20FFF7B3
:103EF00071FC0CA018210B46F022CDE9001040F215
:103F000001217820FDF7F9FDFFF782FD1CBD0000BF
:103F1000414952435241465400000000424154542A
:103F20004C45000050726573732053544152542025
:103F3000746F207374617274000000001CB514A0CB
:103F400020211823C822CDE9001040F2F9214FF4B6
:103F5000AA70FDF7D2FD10A018210B464FF49672FF
:103F6000CDE9001040F2FD210220FDF7C6FD0EE074
:103F7000FEF7E2FE08280AD100204FF448734FF400
:103F8000F07240F2F921009003F036F91CBDEFE722
:103F900053544F50494E4700707265737320275336
:103FA00054412720746F20434F4E54494E554500CD
:103FB0002DE9F04F87B007460C4690469946DDF84C
:103FC00040A0404608EBD071A7EB61010691254661
:103FD00008EBD07107EB610105912646484609EBD5
:103FE000D071A7EB6101049104EB0A0003904846ED
:103FF00009EBD07107EB6101029104EB0A0B1F2062
:10400000B3B20090DDF814C01FFA8CF2A9B2DDF84B
:1040100018C01FFA8CF000F034FC1F200090DDF86F
:104020000CC01FFA8CF3DDF810C01FFA8CF2A9B295
:10403000DDF818C01FFA8CF000F023FC1F20B3B28B
:104040000090DDF814C01FFA8CF21FFA8BF1DDF836
:1040500008C01FFA8CF000F014FC1F200090DDF85F
:104060000CC01FFA8CF3DDF810C01FFA8CF21FFA97
:104070008BF1DDF808C01FFA8CF000F002FC07B0ED
:10408000BDE8F08F00BF054A126802F04002002A26
:10409000F9D0C2B2014B1B1D1A60704700380140B5
:1040A0002DE9F04106460D460027002400BF21E01F
:1040B000FCF796F8C82190FBF1F201FB12000428EE
:1040C00017DA002411E055F8340068B93068783800
:1040D00007EB470100EBC10045F8340070680F3072
:1040E00005EBC401486003E0641CB4F5967FEADB8D
:1040F00000BF7F1C0A2FDBDBBDE8F0812DE9F0411A
:1041000080460E4617460024002500BF24E056F8DE
:10411000340000B3FCF764F8C82190FBF1F201FB16
:10412000120108F10100814215DA00250FE057F86D
:10413000350058B956F8340047F8350006EBC4008E
:1041400040680F3007EBC501486003E06D1CB5F512
:10415000967FECDB00BF641C0A2CD8DBBDE8F08145
:1041600070B506460D46002400BF21E055F8340026
:10417000E8B906EB4600A04218DDFCF731F86321F0
:1041800090FBF1F201FB1201F01C81420EDAFCF708
:1041900027F84FF4E17190FBF1F201FB12000E30B1
:1041A00045F834003D2005EBC401486002E0641C82
:1041B0000A2CDBDB00BF70BD2DE9F04704460D463D
:1041C00016461F46DDF8209004B10DB9BDE8F08712
:1041D00009F10700C11700EB51714FEAE10806FB36
:1041E00007F000FB08FA5046FCF735F8206020681D
:1041F00000B9EBE75046FCF72EF82860286818B99C
:104200002068FCF757F8E1E76660A760C4F80C90F7
:10421000C4F810806E60AF60C5F80C90C5F81080CF
:104220002046FEF7E6FC2846FEF7E3FC00BFCDE79C
:1042300000200021254A1160516091600321D16066
:1042400001211161F02151614FF434721F498A61DB
:1042500000BF08E000221D491C3141F8302001EB6D
:10426000C0014A60401CC828F4DB0121174AC2F88B
:104270005C160021C2F8601600221449C1F86426B9
:104280001421124AC2F868160221C2F86C160122E3
:104290000F490A62002007E000220E4941F8302051
:1042A00001EBC0014A60401C0A28F5DB002008E051
:1042B00000220849503141F8302001EBC0014A602A
:1042C000401CB0F5967FF3DB70470000940000209F
:1042D000941000200407002000200321234AD1600D
:1042E00001211161F02151614FF434721F498A613B
:1042F00000BF08E000221D491C3141F8302001EBCD
:10430000C0014A60401CC828F4DB0121174AC2F8EA
:104310005C160021C2F8601600221449C1F8642618
:104320001421124AC2F868160221C2F86C16012242
:104330000F490A62002007E000220E4941F83020B0
:1043400001EBC0014A60401C0A28F5DB002008E0B0
:1043500000220849503141F8302001EBC0014A6089
:10436000401CB0F5967FF3DB7047000094000020FE
:1043700094100020040700201CB5012340F2DF1236
:1043800019461846FDF79FFB282340F2DF12194615
:104390000120FDF798FB2823012211461046FDF766
:1043A00092FB282340F2DF1201211046FDF78BFB20
:1043B0002823822201211046FDF785FB19A0182130
:1043C0000B465A22CDE9001008210520FDF795FB88
:1043D00016A018210B465A22CDE90010082187208B
:1043E000FDF78BFB13A018210B465A22CDE90010D4
:1043F00008214FF49670FDF780FB40F2F32340F262
:10440000DF1219460120FDF75EFB0CA018210B46B8
:104410004FF48272CDE9001040F2FD210520FDF736
:104420006CFB1CBD5343524F453A00004C49464576
:1044300000000000424F4D420000000070726573A2
:1044400073202753454C2720746F2053544F50003E
:1044500070B50546002615B1012024490870FEF705
:104460006BFC04462148007878B3802C07D0402CA0
:1044700005D0012C03D0022C01D0082C26D10A2013
:1044800000F036F80020194908701AE0FEF754FCD5
:104490000446802C00D170BD402C01D14020FAE7A9
:1044A000012C01D10120F6E7022C01D10220F2E714
:1044B000082C01D10820EEE7701C86B2012000F024
:1044C00017F8B6F57A7FE1DB0DE0FFE7802C0AD024
:1044D000402C08D0012C06D0022C04D0082C02D08D
:1044E0000120024908700020D5E7000028000020C4
:1044F000002102E000BF4A1C91B28142FADB704702
:1045000000B585B000BF00BF2548806940F020009D
:10451000234988610846806900F02000009000BFB0
:1045200000BF00BF00BF00BF0846806940F0080020
:1045300088610846806900F00800009000BF00BF55
:1045400000BF00BF00BF0846806940F008008861D6
:104550000846806900F00800009000BF00BF00BF5F
:1045600008200190012002900390049001A90D48B9
:10457000FCF778FA4FF40060019001A90A48FCF7B3
:1045800071FA4FF4806001900020029001200390A6
:10459000049001A90448FCF765FA05B000BD0000CD
:1045A0000010024000140140000C014038B500200A
:1045B000009000BF0122D1021D48FCF7FBFB00BFA9
:1045C0005020FFF795FF00BF00224FF4006118480C
:1045D000FCF7F0FB00BF002424E09DF80000401031
:1045E00000904FF480611248FCF7DCFB20B99DF885
:1045F000000040F08000009000BF012208210D481B
:10460000FCF7D8FB00BF5020FFF772FF00BF00226D
:1046100008210848FCF7CEFB00BF5020FFF768FFD9
:10462000601CC4B2082CD8DB9DF8000038BD000027
:10463000000C01400014014070B5044600260948F2
:104640000588408845430021084603F063F903F0DC
:1046500009FB00BF02E004480480761CAE42FAD396
:1046600070BD0000301200200008006C10B5044638
:1046700058488471002C58D1F020564908804FF4D6
:10468000A07048800846808845F21051884210D1B9
:104690004FF430504F4908814FF4285048814FF46F
:1046A0002C5088814FF4F07008804FF44870488097
:1046B0001AE04848808841F6631188420DD12C20C9
:1046C000444908812B2048812A2088814FF4F070CA
:1046D00008804FF44870488006E02C203D4908814E
:1046E0002A2048812B2088813A48808845F2103161
:1046F000884205D03748808847F29671884206D1B3
:104700004FF4A070334908804FF4F070488031486E
:10471000808849F60601884258D14FF4F0702D493F
:1047200008804FF44870488050E04FF4A070294949
:104730000880F02048800846808845F21051884261
:1047400010D14FF43050234908814FF4285048814C
:104750004FF42C5088814FF4487008804FF4F0706B
:10476000488020E01B48808841F66311884205D0CC
:104770001848808849F6060188420DD12C20154939
:1047800008812A2048812B2088814FF448700880B6
:104790004FF4F070488006E02C200E4908812A2052
:1047A00048812B2088810B48808845F2103188424F
:1047B00005D00848808847F29671884206D14FF4A8
:1047C000F070044908804FF4A0704880002002F087
:1047D00083FF10BD301200202DE9F04706460F463A
:1047E00090469A46002445460320A0EB480944E041
:1047F0007A1B91B2321990B2524600F099F83A1BE6
:1048000091B2721990B2524600F092F83A1991B2F0
:10481000721990B2524600F08BF87A1991B232199F
:1048200090B2524600F084F87A1991B2321B90B2DD
:10483000524600F07DF83A1991B2721B90B252467E
:1048400000F076F87A1B91B2321B90B2524600F01B
:104850006FF83A1B91B2721B90B2524600F068F8A2
:10486000641CB9F1000F03DAA000801D814404E04C
:10487000601B80000A3081446D1EAC42B8DDBDE88B
:10488000F0872DE9FF4F84B081468A4600200290D0
:1048900083460698A0EB09050798A0EB0A06CDF819
:1048A0000490CDF800A0002D01DD012705E00DB931
:1048B000002702E04FF0FF376D42002E02DD4FF07F
:1048C000010806E016B94FF0000802E04FF0FF388B
:1048D0007642B54201DD2C4600E0344600200390CC
:1048E0001EE0009A91B2019A90B2119A00F020F85D
:1048F000029828440290B3440298A04205DD029831
:10490000001B0290019838440190A34504DDABEBF5
:10491000040B0098404400900398401C80B2039020
:10492000611C03988842DCDD08B0BDE8F08F000010
:1049300070B505460E4614463146284602F0EAFF99
:1049400003F090F901490C8070BD00000008006C74
:1049500010B5CF2003F07AF9002003F06BF9C120E5
:1049600003F068F9302003F065F9ED2003F06EF9EB
:10497000642003F05FF9032003F05CF9122003F0D8
:1049800059F9812003F056F9E82003F05FF98520FA
:1049900003F050F9102003F04DF97A2003F04AF9A2
:1049A000CB2003F053F9392003F044F92C2003F015
:1049B00041F9002003F03EF9342003F03BF90220D6
:1049C00003F038F9F72003F041F9202003F032F921
:1049D000EA2003F03BF9002003F02CF9002003F05B
:1049E00029F9C02003F032F91B2003F023F9C1207C
:1049F00003F02CF9012003F01DF9C52003F026F97E
:104A0000302003F017F9302003F014F9C72003F029
:104A10001DF9B72003F00EF9362003F017F94820EE
:104A200003F008F93A2003F011F9552003F002F9D8
:104A3000B12003F00BF9002003F0FCF81A2003F07A
:104A4000F9F8B62003F002F90A2003F0F3F8A220E7
:104A500003F0F0F8F22003F0F9F8002003F0EAF890
:104A6000262003F0F3F8012003F0E4F8E02003F03F
:104A7000EDF80F2003F0DEF82A2003F0DBF8282001
:104A800003F0D8F8082003F0D5F80E2003F0D2F890
:104A9000082003F0CFF8542003F0CCF8A92003F04D
:104AA000C9F8432003F0C6F80A2003F0C3F80F202A
:104AB00003F0C0F8002003F0BDF8002003F0BAF8BE
:104AC000002003F0B7F8002003F0B4F8E12003F071
:104AD000BDF8002003F0AEF8152003F0ABF8172066
:104AE00003F0A8F8072003F0A5F8112003F0A2F8BE
:104AF000062003F09FF82B2003F09CF8562003F0CB
:104B000099F83C2003F096F8052003F093F8102064
:104B100003F090F80F2003F08DF83F2003F08AF89F
:104B20003F2003F087F80F2003F084F82B2003F0D8
:104B30008DF8002003F07EF8002003F07BF80120C0
:104B400003F078F83F2003F075F82A2003F07EF890
:104B5000002003F06FF8002003F06CF8002003F051
:104B600069F8EF2003F066F8112003F06FF8782061
:104B7000FEF7F8F8292003F069F810BD10B5FF2002
:104B800003F064F8FF2003F055F8982003F052F882
:104B9000062003F04FF8BC2003F058F8012003F082
:104BA00049F80F2003F046F8612003F043F8FF2096
:104BB00003F040F8012003F03DF8012003F03AF83B
:104BC0000B2003F037F8102003F034F8372003F0FF
:104BD00031F8632003F02EF8FF2003F02BF8FF20BC
:104BE00003F028F8012003F025F8012003F022F853
:104BF000002003F01FF8002003F01CF8FF2003F052
:104C000019F8522003F016F8012003F013F80020E1
:104C100003F010F8402003F00DF8BD2003F016F863
:104C2000012003F007F8232003F004F8452003F0E7
:104C300001F8672002F0FEFF012002F0FBFF2320B5
:104C400002F0F8FF452002F0F5FF672002F0F2FFC6
:104C5000BE2002F0FBFF002002F0ECFF012002F07A
:104C6000E9FFAB2002F0E6FF602002F0E3FF222024
:104C700002F0E0FF222002F0DDFF222002F0DAFF46
:104C8000222002F0D7FF222002F0D4FFC72002F03A
:104C9000DDFF362002F0CEFFED2002F0D7FF7F20AF
:104CA00002F0C8FF0F2002F0C5FFC02002F0CEFFC7
:104CB0000F2002F0BFFF0B2002F0BCFF0A2002F021
:104CC000B9FFFC2002F0C2FF082002F0B3FFDF2092
:104CD00002F0BCFF002002F0ADFF002002F0AAFFAE
:104CE000002002F0A7FF002002F0A4FF002002F045
:104CF000A1FF202002F09EFFF32002F0A7FF742006
:104D000002F098FFB42002F0A1FF002002F092FF11
:104D1000002002F08FFF002002F08CFFF72002F04D
:104D200095FF822002F086FFB12002F08FFF002065
:104D300002F080FF132002F07DFF132002F07AFFC3
:104D4000F22002F083FF802002F074FF042002F0C2
:104D500071FF402002F06EFF282002F06BFFC1209F
:104D600002F074FF172002F065FF882002F062FF56
:104D7000882002F05FFF202002F05CFFE02002F0BC
:104D800065FF002002F056FF0A2002F053FF1220B8
:104D900002F050FF102002F04DFF0E2002F04AFFFB
:104DA000202002F047FFCC2002F044FF072002F051
:104DB00041FF062002F03EFF0B2002F03BFF0E20D9
:104DC00002F038FF0F2002F035FF0D2002F032FF15
:104DD000152002F02FFF102002F02CFF002002F01F
:104DE00029FFE12002F032FF002002F023FF0B2018
:104DF00002F020FF132002F01DFF0D2002F01AFF29
:104E00000E2002F017FF1B2002F014FF712002F0A9
:104E100011FF062002F00EFF062002F00BFF0A2011
:104E200002F008FF0F2002F005FF0E2002F002FF43
:104E30000F2002F0FFFE152002F0FCFE0C2002F015
:104E4000F9FE002002F0F6FE2A2002F0FFFE00200C
:104E500002F0F0FE002002F0EDFE012002F0EAFE7A
:104E6000DF2002F0E7FE2B2002F0F0FE002002F02F
:104E7000E1FE002002F0DEFE032002F0DBFE1F2038
:104E800002F0D8FE3A2002F0E1FE552002F0D2FEF8
:104E9000362002F0DBFE002002F0CCFE112002F0F2
:104EA000D5FE7820FDF75EFF292002F0CFFE14200A
:104EB000FDF758FF2C2002F0C9FE10BD10B5ED2003
:104EC00002F0C4FE012002F0B5FEFE2002F0B2FEA8
:104ED000EE2002F0BBFEDE2002F0ACFE212002F04C
:104EE000A9FEF12002F0B2FE012002F0A3FEDF20B5
:104EF00002F0ACFE102002F09DFEC42002F0A6FEDF
:104F00008F2002F097FEC62002F0A0FE002002F0E3
:104F100091FEE22002F08EFEE22002F08BFEE22003
:104F200002F088FEBF2002F091FEAA2002F082FE6D
:104F3000B02002F08BFE0D2002F07CFE002002F07B
:104F400079FE0D2002F076FE002002F073FE1120A3
:104F500002F070FE002002F06DFE192002F06AFEE1
:104F6000002002F067FE212002F064FE002002F023
:104F700061FE2D2002F05EFE002002F05BFE3D206F
:104F800002F058FE002002F055FE5D2002F052FEB5
:104F9000002002F04FFE5D2002F04CFE002002F0E7
:104FA00049FEB12002F052FE802002F043FE0020B4
:104FB00002F040FE8B2002F03DFE002002F03AFE9F
:104FC000962002F037FE002002F034FEB22002F0FC
:104FD0003DFE002002F02EFE002002F02BFE0220FB
:104FE00002F028FE002002F025FE032002F022FE3F
:104FF000002002F01FFEB32002F028FE002002F085
:1050000019FE002002F016FE002002F013FE002020
:1050100002F010FE002002F00DFE002002F00AFE59
:10502000002002F007FE002002F004FE002002F043
:1050300001FE002002F0FEFD002002F0FBFD00203A
:1050400002F0F8FD002002F0F5FD002002F0F2FD74
:10505000002002F0EFFD002002F0ECFD002002F045
:10506000E9FD002002F0E6FD002002F0E3FD002053
:1050700002F0E0FD002002F0DDFD002002F0DAFD8C
:10508000002002F0D7FD002002F0D4FDB42002F091
:10509000DDFD8B2002F0CEFD002002F0CBFD96203E
:1050A00002F0C8FD002002F0C5FDA12002F0C2FD03
:1050B000002002F0BFFDB52002F0C8FD022002F082
:1050C000B9FD002002F0B6FD032002F0B3FD002080
:1050D00002F0B0FD042002F0ADFD002002F0AAFDB8
:1050E000B62002F0B3FD002002F0A4FD002002F083
:1050F000A1FDB72002F0AAFD002002F09BFD0020D8
:1051000002F098FD3F2002F095FD002002F092FD94
:105110005E2002F08FFD002002F08CFD642002F082
:1051200089FD002002F086FD8C2002F083FD002026
:1051300002F080FDAC2002F07DFD002002F07AFD3F
:10514000DC2002F077FD002002F074FD702002F0F8
:1051500071FD002002F06EFD902002F06BFD00203A
:1051600002F068FDEB2002F065FD002002F062FD18
:10517000DC2002F05FFD002002F05CFDB82002F0B0
:1051800065FD002002F056FD002002F053FD0020D6
:1051900002F050FD002002F04DFD002002F04AFD1B
:1051A000002002F047FD002002F044FD002002F044
:1051B00041FDBA2002F04AFD242002F03BFD002010
:1051C00002F038FD002002F035FD002002F032FD33
:1051D000C12002F03BFD202002F02CFD002002F057
:1051E00029FD542002F026FD002002F023FDFF20BF
:1051F00002F020FD002002F01DFDC22002F026FD7D
:105200000A2002F017FD002002F014FD042002F035
:1052100011FD002002F00EFDC32002F017FD3C201E
:1052200002F008FD002002F005FD3A2002F002FD28
:10523000002002F0FFFC392002F0FCFC002002F00C
:10524000F9FC372002F0F6FC002002F0F3FC3C20D1
:1052500002F0F0FC002002F0EDFC362002F0EAFC47
:10526000002002F0E7FC322002F0E4FC002002F013
:10527000E1FC2F2002F0DEFC002002F0DBFC2C2001
:1052800002F0D8FC002002F0D5FC292002F0D2FC6C
:10529000002002F0CFFC262002F0CCFC002002F01F
:1052A000C9FC242002F0C6FC002002F0C3FC24202C
:1052B00002F0C0FC002002F0BDFC232002F0BAFC8A
:1052C000002002F0B7FC3C2002F0B4FC002002F009
:1052D000B1FC362002F0AEFC002002F0ABFC322024
:1052E00002F0A8FC002002F0A5FC2F2002F0A2FC96
:1052F000002002F09FFC2C2002F09CFC002002F019
:1053000099FC292002F096FC002002F093FC262054
:1053100002F090FC002002F08DFC242002F08AFCB8
:10532000002002F087FC242002F084FC002002F020
:1053300081FC232002F07EFC002002F07BFCC420D4
:1053400002F084FC622002F075FC002002F072FC86
:10535000052002F06FFC002002F06CFC842002F0BB
:1053600069FC002002F066FCF02002F063FC0020E3
:1053700002F060FC182002F05DFC002002F05AFCF4
:10538000A42002F057FC002002F054FC182002F088
:1053900051FC002002F04EFC502002F04BFC00209B
:1053A00002F048FC0C2002F045FC002002F042FC18
:1053B000172002F03FFC002002F03CFC952002F098
:1053C00039FC002002F036FCF32002F033FC002010
:1053D00002F030FCE62002F02DFC002002F02AFC56
:1053E000C52002F033FC322002F024FC002002F041
:1053F00021FC442002F01EFC002002F01BFC652072
:1054000002F018FC002002F015FC762002F012FCDD
:10541000002002F00FFC882002F00CFC002002F0BB
:1054200009FCC62002F012FC202002F003FC002040
:1054300002F000FC172002F0FDFB002002F0FAFB56
:10544000012002F0F7FB002002F0F4FBC72002F07D
:10545000FDFB002002F0EEFB002002F0EBFB002041
:1054600002F0E8FB002002F0E5FBC82002F0EEFBB2
:10547000002002F0DFFB002002F0DCFB002002F045
:10548000D9FB002002F0D6FBC92002F0DFFB002090
:1054900002F0D0FB002002F0CDFB002002F0CAFB9E
:1054A000002002F0C7FB002002F0C4FB002002F045
:1054B000C1FB002002F0BEFB002002F0BBFB00207D
:1054C00002F0B8FB002002F0B5FB002002F0B2FBB6
:1054D000002002F0AFFB002002F0ACFB002002F045
:1054E000A9FB002002F0A6FB002002F0A3FBE020B5
:1054F00002F0ACFB162002F09DFB002002F09AFBAC
:105500001C2002F097FB002002F094FB212002F007
:1055100091FB002002F08EFB362002F08BFB002076
:1055200002F088FB462002F085FB002002F082FB9F
:10553000522002F07FFB002002F07CFB642002F08E
:1055400079FB002002F076FB7A2002F073FB00204A
:1055500002F070FB8B2002F06DFB002002F06AFB72
:10556000992002F067FB002002F064FBA82002F003
:1055700061FB002002F05EFBB92002F05BFB002023
:1055800002F058FBC42002F055FB002002F052FB51
:10559000CA2002F04FFB002002F04CFBD22002F0A8
:1055A00049FB002002F046FBD92002F043FB00201B
:1055B00002F040FBE02002F03DFB002002F03AFB4D
:1055C000F32002F037FB002002F034FBE12002F070
:1055D0003DFB162002F02EFB002002F02BFB1C20CE
:1055E00002F028FB002002F025FB222002F022FB23
:1055F000002002F01FFB362002F01CFB002002F00E
:1056000019FB452002F016FB002002F013FB52208C
:1056100002F010FB002002F00DFB642002F00AFBF8
:10562000002002F007FB7A2002F004FB002002F0C9
:1056300001FB8B2002F0FEFA002002F0FBFA992019
:1056400002F0F8FA002002F0F5FAA82002F0F2FACF
:10565000002002F0EFFAB92002F0ECFA002002F08C
:10566000E9FAC42002F0E6FA002002F0E3FACA20C8
:1056700002F0E0FA002002F0DDFAD22002F0DAFABD
:10568000002002F0D7FAD82002F0D4FA002002F06D
:10569000D1FAE02002F0CEFA002002F0CBFAF3209B
:1056A00002F0C8FA002002F0C5FAE22002F0CEFAB9
:1056B000052002F0BFFA002002F0BCFA0B2002F035
:1056C000B9FA002002F0B6FA1B2002F0B3FA00206B
:1056D00002F0B0FA342002F0ADFA002002F0AAFA8B
:1056E000442002F0A7FA002002F0A4FA4F2002F0B2
:1056F000A1FA002002F09EFA612002F09BFA00203D
:1057000002F098FA792002F095FA002002F092FA5D
:10571000882002F08FFA002002F08CFA972002F025
:1057200089FA002002F086FAA62002F083FA00200F
:1057300002F080FAB72002F07DFA002002F07AFA37
:10574000C22002F077FA002002F074FAC72002F0BB
:1057500071FA002002F06EFAD12002F06BFA0020FC
:1057600002F068FAD62002F065FA002002F062FA30
:10577000DD2002F05FFA002002F05CFAF32002F074
:1057800059FA002002F056FAE32002F05FFA0520F1
:1057900002F050FA002002F04DFA0A2002F04AFA14
:1057A000002002F047FA1C2002F044FA002002F028
:1057B00041FA332002F03EFA002002F03BFA442086
:1057C00002F038FA002002F035FA502002F032FAE6
:1057D000002002F02FFA622002F02CFA002002F0E2
:1057E00029FA782002F026FA002002F023FA882015
:1057F00002F020FA002002F01DFA972002F01AFAB7
:10580000002002F017FAA62002F014FA002002F09D
:1058100011FAB72002F00EFA002002F00BFAC220B3
:1058200002F008FA002002F005FAC72002F002FA9E
:10583000002002F0FFF9D12002F0FCF9002002F074
:10584000F9F9D52002F0F6F9002002F0F3F9DD2095
:1058500002F0F0F9002002F0EDF9F32002F0EAF98D
:10586000002002F0E7F9E42002F0F0F9012002F054
:10587000E1F9002002F0DEF9012002F0DBF900205E
:1058800002F0D8F9022002F0D5F9002002F0D2F996
:105890002A2002F0CFF9002002F0CCF93C2002F0DF
:1058A000C9F9002002F0C6F94B2002F0C3F900202C
:1058B00002F0C0F95D2002F0BDF9002002F0BAF953
:1058C000742002F0B7F9002002F0B4F9842002F04D
:1058D000B1F9002002F0AEF9932002F0ABF90020FC
:1058E00002F0A8F9A22002F0A5F9002002F0A2F926
:1058F000B32002F09FF9002002F09CF9BE2002F0D4
:1059000099F9002002F096F9C42002F093F90020E2
:1059100002F090F9CD2002F08DF9002002F08AF912
:10592000D32002F087F9002002F084F9DD2002F094
:1059300081F9002002F07EF9F32002F07BF90020CB
:1059400002F078F9E52002F081F9002002F072F906
:10595000002002F06FF9002002F06CF9002002F044
:1059600069F9022002F066F9002002F063F92920AB
:1059700002F060F9002002F05DF93C2002F05AF9D3
:10598000002002F057F94B2002F054F9002002F0F9
:1059900051F95D2002F04EF9002002F04BF974201D
:1059A00002F048F9002002F045F9842002F042F9A3
:1059B000002002F03FF9932002F03CF9002002F0B1
:1059C00039F9A22002F036F9002002F033F9B320B1
:1059D00002F030F9002002F02DF9BE2002F02AF981
:1059E000002002F027F9C42002F024F9002002F080
:1059F00021F9CD2002F01EF9002002F01BF9D3207E
:105A000002F018F9002002F015F9DC2002F012F97A
:105A1000002002F00FF9F32002F00CF9002002F050
:105A200009F9E62002F012F9112002F003F9002032
:105A300002F000F9342002F0FDF8002002F0FAF83C
:105A4000562002F0F7F8002002F0F4F8762002F079
:105A5000F1F8002002F0EEF8772002F0EBF80020D9
:105A600002F0E8F8662002F0E5F8002002F0E2F823
:105A7000882002F0DFF8002002F0DCF8992002F024
:105A8000D9F8002002F0D6F8BB2002F0D3F80020AD
:105A900002F0D0F8992002F0CDF8002002F0CAF808
:105AA000662002F0C7F8002002F0C4F8552002F08A
:105AB000C1F8002002F0BEF8552002F0BBF800202B
:105AC00002F0B8F8452002F0B5F8002002F0B2F874
:105AD000432002F0AFF8002002F0ACF8442002F0BE
